:020000040800F2
:10000000280E002091110008C1020008C302000858
:10001000C7020008CB020008CF0200080000000061
:10002000000000000000000000000000D3020008F3
:10003000D502000800000000D7020008D90200081D
:10004000AB110008AB110008AB110008AB110008A0
:10005000AB110008AB110008AB110008AB11000890
:10006000AB110008AB110008AB110008AB11000880
:10007000AB110008AB110008AB110008AB11000870
:10008000AB110008AB110008AB110008AB11000860
:10009000AB110008AB110008AB110008AB11000850
:1000A000AB110008AB110008AB110008AB11000840
:1000B000AB110008AB110008AB110008AB11000830
:1000C000AB110008AB110008AB110008AB11000820
:1000D000AB110008130700081B070008AB1100084C
:1000E000AB110008AB110008AB110008AB11000800
:1000F000AB110008AB110008AB110008AB110008F0
:10010000AB110008AB110008AB110008AB110008DF
:10011000AB110008AB110008AB110008AB110008CF
:10012000AB110008AB110008AB110008AB110008BF
:10013000DFF80CD002F00EF9004800474501000836
:10014000280E002000BF00BF002400F0B7FF4FF4CE
:10015000A06001F0B3FD00F053FE4FF4165000F024
:10016000EDF900F0A9FE8BE0012000F096FB454977
:10017000088045488078454948704348C1784348DD
:100180008170002000F089FB414908803E48817859
:100190003E48C1703C48C1783C480171022000F0E3
:1001A0007CFB3C49088038488178384841713648A2
:1001B000C1783648817140F2F51000F020FB3649D5
:1001C0000880364881783148C1713448C1782F4859
:1001D00001724FF4FA7000F012FB314908802F4889
:1001E00081782A4841722D48C1782848817240F2AE
:1001F000F91000F004FB2B49088028488178234837
:10020000C1722648C17821480173022000F011FB19
:1002100025490880254881781C4841732348C178C6
:100220001A488173032000F01EFB214908802148F1
:1002300081781648C1731F48C1781448017400BF03
:10024000002000F044FB1C490880601CC4B2084632
:10025000008808B9032CF3DB0024184881780B4888
:1002600041741648C17809488174144801790748D7
:10027000C17412484179054801751420034908707A
:1002800072E700002A00002092000020AA0100204E
:10029000280000202C000020220000207E000020EA
:1002A00020000020240000201E00002074000020F8
:1002B00026000020880000202E0000209C00002046
:1002C000704700BFFEE700BFFEE700BFFEE700BFCC
:1002D000FEE7704770477047704700000CB500207C
:1002E000019000906C48006840F480306A490860D2
:1002F00000BF6948006800F4003000900198401C7D
:100300000190009818B90198B0F5A06FF1D162483A
:10031000006800F4003010B10120009001E00020DE
:1003200000900098012843D15C48006840F010001C
:100330005A4908600846006820F003000860084633
:10034000006840F002000860534840685249486025
:100350000846406848600846406840F4806048604D
:100360000846406820F47C1048600846406840F425
:10037000E81048600846006840F08070086000BFE0
:100380004548006800F000700028F9D042484068F5
:1003900020F00300404948600846406840F00200F1
:1003A000486000BF3C48406800F00C000828F9D1C4
:1003B0000CBD10B5FFF792FF10BD10B536480068B0
:1003C00040F001003449086008464068344908405C
:1003D0003149486008460068324908402E490860A3
:1003E0000846006820F4802008600846406820F431
:1003F000FE0048604FF41F008860FFF7DAFF4FF0FF
:1004000000602949086010BD10B5002100200022BD
:10041000214B5B6803F00C0121B1042906D00829A7
:1004200028D107E0214B224C236027E01F4B204CB2
:10043000236023E0184B5B6803F47010164B5B6875
:1004400003F48032022303EB904022B9194B43435B
:10045000174C23600DE0104B5B6803F4003323B1AD
:10046000144B4343124C236003E0104B4343104CA6
:10047000236003E00D4B0E4C236000BF00BF064B12
:100480005B68C3F303130C4CE15C094B1B68CB4066
:10049000074C236010BD0000001002400020024005
:1004A0000000FFF8FFFFF6FE08ED00E000127A0002
:1004B0000000002000093D00040000202DE9F0416B
:1004C00005460E4617460024012F0FD100BF0BE052
:1004D00000BF4021164801F097FB0028F9D0295DA4
:1004E000134801F023FB641CB442F1DB022F1DD141
:1004F0000221104800F06BFF012000F01CFE0024D8
:100500000BE000BF40210C4801F07EFB0028F9D031
:10051000295D094801F00AFB641CB442F1DB0120AB
:1005200000F009FE0221034800F053FFBDE8F0810E
:1005300000380140000801400044004010B586B07A
:1005400004460121042001F051F90121480401F081
:100550005AF90121880301F049F94FF40070ADF810
:10056000140003208DF8160018208DF8170005A937
:100570006C4800F07FFE4FF48060ADF8140004205A
:100580008DF8170005A9674800F074FE25208DF846
:10059000000001208DF8010000208DF802000120EC
:1005A0008DF80300684601F08EFB0420ADF81400BE
:1005B00003208DF8160018208DF8170005A959485A
:1005C00000F058FE0820ADF8140004208DF8170044
:1005D00005A9544800F04EFE26208DF800000220A8
:1005E0008DF8010000208DF8020001208DF8030035
:1005F000684601F068FB4FF48060ADF814000320FA
:100600008DF8160018208DF8170005A9464800F04F
:1006100031FE4FF40060ADF8140004208DF817008F
:1006200005A9414800F026FE27208DF8000004208F
:100630008DF8010003208DF8020001208DF80300E1
:10064000684601F040FB01940020ADF80800ADF8C9
:100650000A00ADF80C00ADF810000C20ADF80E004B
:1006600001A9324801F069F9012240F225512F48D1
:1006700001F0FBF901212D4801F0EBF901A92C480B
:1006800001F05BF9012240F22551294801F0EDF912
:100690000121274801F0DDF901A9264801F04DF9B3
:1006A000012240F22551234801F0DFF901212148C0
:1006B00001F0CFF906B010BD70B505460C461B48D9
:1006C000844202D11C480078B8B91948844202D14A
:1006D0001948407888B91748844202D11648807872
:1006E00058B91648844202D11348C07828B9144832
:1006F00084420DD11048007950B103E029462046CC
:1007000001F014FA4021204601F07EFA0028F5D0CD
:1007100070BD10B500F01DFA10BD10B500F0E8F87E
:1007200010BD000000080140000C014000380140ED
:10073000004400400048004014000020004C0040ED
:100740000050004070B503460C464FF6FF71002282
:1007500012E09E5C714000250AE001F0010626B11E
:1007600049104AF20106714000E049106E1CF5B2D2
:10077000082DF2DB561CB2B2A242EADB081240EAB4
:100780000126B0B270BD2DE9FC41064688461446EC
:100790001D468DF800608DF8018020128DF8020052
:1007A000E0B28DF8030028128DF80400E8B28DF84D
:1007B000050006216846FFF7C5FF074638128DF889
:1007C0000600F8B28DF80700022208216846FFF7FC
:1007D00075FEBDE8FC8110B50446012322460321C5
:1007E0000420FFF7D0FF10BD014600200A7A2AB18D
:1007F00000220A728878CA7842EA0020704770B5F1
:1008000004462046FFF7E7FFC82000F094FCF648B6
:10081000FFF7EAFF0546C82000F08DFC284670BDB2
:1008200010B504460123224603210846FFF7ABFF1B
:1008300010BD70B504462046FFF7F2FFC82000F057
:100840007AFCEA48FFF7D0FF0546C82000F073FCA9
:10085000284670BD10B504460123224603211846E0
:10086000FFF791FF10BD70B504462046FFF7F2FF79
:10087000C82000F060FCDE48FFF7B6FF0546C82040
:1008800000F059FC284670BD10B5044601232246ED
:1008900003210220FFF777FF10BD70B50446204604
:1008A000FFF7F2FFC82000F046FCD248FFF79CFF9C
:1008B0000546C82000F03FFC284670BD10B5044630
:1008C0000223224603210620FFF75DFF10BD70B50D
:1008D00004462046FFF7F2FFC82000F02CFCC64873
:1008E000FFF782FF0546C82000F025FC284670BDB2
:1008F00010B540F22551C14801F09CF900287BD089
:10090000BE4801F017F9C4B2BD480078062874D279
:10091000DFE800F0035F8097B8C5072C4BD2DFE813
:1009200004F04A202E12044A3C00AF48B549086042
:10093000B5480470B2480078401CB1490870B1480D
:100940000068047043E0A948AE490860AE480470EE
:10095000AB480078401CAA490870AA480068047097
:1009600035E0A348A7490860A7480470A448007868
:10097000401CA3490870A3480068047027E09D4804
:10098000A0490860A04804709D480078401C9C491C
:1009900008709C480068047019E0974899490860FD
:1009A0009948047096480078401C9549087095480D
:1009B000006804700BE000209149087093490870AA
:1009C00093490870934908808E49086000BF00BFB2
:1009D0008DE0032C12D18C4800788A490968087090
:1009E000894800788C49087008464470844800782B
:1009F000401C834908700CE07AE077E000208049D1
:100A000008708249087082490870824908807D49CF
:100A100008606CE07E48047000787A490968487084
:100A20007B4800787C49887075480078401C744980
:100A300008707748007818B908460078401C08709C
:100A400055E0724800787249097888420EDA724996
:100A50006E480078C01C0C546C4801780078401C2B
:100A60006A4A107067480068801C445467480078E0
:100A700067490978884204D161480078401C604980
:100A8000087034E06348048061480078C01C624903
:100A90000C545B480078401C5949087027E05D48B9
:100AA000007844EA002057490968C880584800780F
:100AB000001D59490C5456480178C91C5648FFF787
:100AC00041FE50490968C988884203D101204D4937
:100AD0000968087200204A4908704C4908704C495E
:100AE00008704C4908804749086000E000BF00BF1B
:100AF00010BD70B50025494C494800784949087037
:100B0000002048704848007888700320C87020781A
:100B1000087106E0601C415D681D424A1154681C62
:100B2000C5B22078A842F5DC2078C11C3D48FFF70B
:100B300009FE064631122078401D3A4A11542078A9
:100B4000801D16542078C11D01223648FFF7B6FCDF
:100B500070BD10B540F22551344801F06BF8002803
:100B600077D0324800F0E6FFC4B2AA2C05D1304855
:100B7000007810B901202F4908702E48007801280C
:100B800002D1204600F027FA2A480078002860D1D8
:100B9000274800780A287CD2DFE800F0051F6C8C1B
:100BA000AABACADAEAF31E480088844205D120486E
:100BB0000078401C1E4908700EE000201C49087097
:100BC0001D4908701D4908701D4908701D490870AD
:100BD0001D4908801D490860FAE0CCBB1448007824
:100BE000401C1349087044E07E000020740000207F
:100BF00088000020920000209C000020004400405B
:100C00003C000020440000201C0000203D0000208B
:100C10003E00002040000020A6000020AA01002085
:100C200056000020C201002058000020003801407A
:100C3000480000203B0000204A000020490000201E
:100C40004B0000204C0000204E00002050000020EF
:100C500000E0BEE000205F4908705F4908705F490E
:100C600008705F4908705F4908705F4908805F49F4
:100C70000860ADE05E48008884420BD15D485B4966
:100C800008605D48047053480078401C5149087062
:100C90000FE09CE000204F4908704F4908704F4911
:100CA00008704F4908704F4908704F4908804F49F4
:100CB00008608DE0032C0BD14D4800784F49087037
:100CC0000846447043480078401C424908700EE0D2
:100CD0000020404908704049087040490870404968
:100CE00008704049087040490880404908606FE03A
:100CF0003A48047000783D49096808703748007820
:100D00003E49887033480078401C324908705FE0E3
:100D10003148047000783549096848702E480078D9
:100D20003649C8702B480078401C2A4908704FE0AB
:100D30002B48047000782D4909688870284800788D
:100D40002E49087123480078401C224908703FE072
:100D500024480470007825490968C8702148007843
:100D6000264948711B480078401C1A4908702FE03A
:100D70001D48048017480078401C1649087027E079
:100D8000FFE71948007844EA00201849096888807C
:100D900006211A48FFF7D6FC144909688988884259
:100DA00005D10120114909688871FFF7A2FE0020D2
:100DB000084908700849087008490870084908700F
:100DC00008490870084908800849086000BF00BF4A
:100DD00000BF10BD480000204A000020490000204C
:100DE0004B0000204C0000204E000020500000204E
:100DF00058000020320000201C000020A600002027
:100E000008B501210C2000F0F1FC10208DF8030042
:100E100003208DF802001020ADF800006946194843
:100E200000F028FA1021174800F0D3FA2020ADF87E
:100E300000006946144800F01DFA2021124800F015
:100E4000C8FA0121084600F0D1FC01210F4800F04A
:100E5000E2FA4FF40040ADF800006946094800F09E
:100E600009FA4FF40041074800F0B3FA0220ADF848
:100E700000006946034800F0FDF90221014800F036
:100E8000A8FA08BD00080140000C01400002300033
:100E900001460888704730B503460C4615460022C7
:100EA00007E01846FFF7F4FF24F812009B1C501CC3
:100EB00082B2AA42F5DB30BD00B5022278497948FA
:100EC000FFF7E9FF022278497648801CFFF7E3FF2D
:100ED00000BD2DE9F04105460E461746002407E007
:100EE00036F81410284601F0BEF8AD1C601C84B220
:100EF000BC42F5DBBDE8F0812DE9F05F80468A4613
:100F00001746B8F1006F02D36848804501D3BDE8A9
:100F1000F09F00F060FFA8F1006B4FEADB25CBF3F8
:100F20004909C9F58064A74200DC3C464DE04FF01A
:100F3000006101EBC5204A145D49FFF7ACFF0026B4
:100F40000BE009EB06005A4931F810004FF6FF712B
:100F5000884200D003E0701C86B2A642F1DB00BFDD
:100F6000A6421BDA4FF0006101EBC52000F078FFCC
:100F7000002608E03AF8160006EB09014C4A22F870
:100F80001100701C86B2A642F4DB4FF0006101EB49
:100F9000C5204A144649FFF79CFF04E0224651460B
:100FA0004046FFF796FFA74200D10FE06D1C4FF0BF
:100FB00000090AEB440AA044381B87B2B7F5806FDA
:100FC00002DD4FF4806400E03C46B0E700BF00F073
:100FD0000EFF00BF9BE710B504463648008830B1CD
:100FE00001280CD0022812D003284AD117E0AA2CDD
:100FF00004D130480088401C2E49088045E028482C
:1010000004802C480088401C2A4908803DE026487E
:10101000048028480088401C2649088035E0BB2C05
:101020001BD100202349088002221D491D48FFF7DB
:1010300063FF02221C491B48801CFFF75DFF002054
:101040001D490870012211461548FFF737FA0122A1
:1010500011461548FFF732FA12E0002010490880C7
:10106000114908801349088013490870012211466C
:101070000B48FFF723FA012211460B48FFF71EFA2F
:1010800003E000200B49088000BF00BF10BD13B56E
:101090000446012201A92046FFF72EFF1CBD0000D7
:1010A0005600002000C0030858000020000004087B
:1010B00026020020540000203B00002010B56FF0F5
:1010C000040000F04AFE2E4800682E49B0FBF1F003
:1010D0002D4908700846007800EB4001C1EBC010B4
:1010E0004FF6FF7101EAC0002849088010BD014693
:1010F000254A12784A434FF0E0235A6100229A6150
:101100001A46126942F001021A6100BF4FF0E02254
:10111000106900F001021AB100F48032002AF5D003
:101120004FF0E022126922F001024FF0E0231A6131
:1011300000229A6170470146144A12884A434FF0D0
:10114000E0235A6100229A611A46126942F00102B4
:101150001A6100BF4FF0E022106900F001021AB1DD
:1011600000F48032002AF5D04FF0E022126922F01C
:1011700001024FF0E0231A6100229A6170470000DB
:101180000000002000127A005A0000205C000020BD
:101190000648804706480047FEE7FEE7FEE7FEE711
:1011A000FEE7FEE7FEE7FEE7FEE7FEE7BB0300081B
:1011B0003101000810B50446CC48844208D1012111
:1011C000042000F02DFB0021042000F029FB46E064
:1011D000C748844208D10121082000F021FB0021EA
:1011E000082000F01DFB3AE0C248844208D10121EA
:1011F000102000F015FB0021102000F011FB2EE064
:10120000BD48844208D10121202000F009FB0021C3
:10121000202000F005FB22E0B848844208D10121DB
:10122000402000F0FDFA0021402000F0F9FA16E01D
:10123000B348844208D10121802000F0F1FA002156
:10124000802000F0EDFA0AE0AE48844207D1012187
:10125000801500F0E5FA0021A01500F0E1FA10BDBC
:1012600010B50121084600F0DBFA0021012000F052
:10127000D7FA10BD2DE9F0410246002500260020D6
:1012800000230024002791F803C00CF00F0591F80B
:1012900003C00CF0100CBCF1000F03D091F802C099
:1012A0004CEA050591F800C0BCF1000F31D014687C
:1012B00000202BE04FF0010C0CFA00F3B1F800C055
:1012C0000CEA03069E4220D183004FF00F0C0CFA6B
:1012D00003F7BC4305FA03FC4CEA040491F803C08D
:1012E000BCF1280F06D14FF0010C0CFA00FCC2F83B
:1012F00014C00AE091F803C0BCF1480F05D14FF0CB
:10130000010C0CFA00FCC2F810C0401C0828D1D314
:101310001460B1F800C0BCF1FF0F34DD5468002048
:101320002EE000F1080C4FF0010808FA0CF3B1F8B8
:1013300000C00CEA03069E4221D183004FF00F0C3F
:101340000CFA03F7BC4305FA03FC4CEA040491F8D9
:1013500003C0BCF1280F05D100F1080C08FA0CF805
:10136000C2F8148091F803C0BCF1480F07D100F116
:10137000080C4FF0010808FA0CF8C2F81080401C65
:101380000828CED35460BDE8F0814FF6FF7101808C
:10139000022181700421C1707047024600209368C9
:1013A0000B400BB1012000E0002070470146886827
:1013B00080B2704702460020D3680B400BB1012079
:1013C00000E0002070470146C86880B270470161A4
:1013D0007047416170470AB1016100E041617047A7
:1013E000C16070474FF480320A438261816182613B
:1013F00082698269704702460020434B18684FF6A5
:101400008073184040EA021008433F4B1860704751
:101410003E49C8617047F0B50A4600230024002108
:10142000002500F00046B6F1004F02D1364EF169BA
:1014300001E0354E7168C0F3034583B200F44016F5
:10144000B6F5401F08D121F070612F4E766826F066
:1014500070662D4F7E6012E000F48016B6F5801F96
:1014600006D1032606FA05F4A14341F0706106E0B7
:10147000460D360103FA06F6B14341F0706122B120
:10148000460D360103FA06F6314300F00046B6F188
:10149000004F02D11C4EF16101E01B4E7160F0BDA6
:1014A00030B500228B071C0F0F2303FA04F2164BF2
:1014B00008338C1053F824309343134C08348D10A8
:1014C00044F8253023468C1053F824308C07240F21
:1014D00000FA04F423430C4C08348D1044F82530F2
:1014E00030BD0A49DC310860704700000008014047
:1014F000000C0140001001400014014000180140A0
:10150000001C01400020014000000140000020427A
:10151000DF48006840F00100DD4908600846406887
:10152000DC490840DA49486008460068DA49084062
:10153000D74908600846006820F480200860084603
:10154000406820F4FE0048604FF41F008860704738
:10155000CF49096821F48031CD4A116011460968EC
:1015600021F480211160B0F5803F03D0B0F5802FC9
:101570000ED106E0C649096841F48031C44A1160C1
:1015800007E0C349096841F4A021C14A116000E0A5
:1015900000BF00BF704710B50146002200230020A5
:1015A0004A11012A02D1BA4C236806E0022A02D16C
:1015B000B74C236A01E0B64C636A01F01F020124B4
:1015C00094401C400CB1012000E0002010BD38B553
:1015D000002000900024002500BF3120FFF7DBFF32
:1015E00005460098401C00900098B0F5A06F01D00F
:1015F000002DF2D03120FFF7CEFF08B1012400E02A
:101600000024204638BD01460020A14A106820F081
:10161000F80040EAC10010607047A04908607047B8
:10162000024600209A4B586820F47C1042EA0103DD
:101630001843974B586070479849086670470146B1
:101640000020934A506820F0030008435060704720
:101650008F48406800F00C007047014600208C4A1B
:10166000506820F0F00008435060704701460020A9
:10167000874A506820F4E060084350607047014694
:101680000020834A506820F4605040EAC100506056
:10169000704729B17E4A527A02437D4B5A7204E068
:1016A0007B4A527A82437A4B5A7270477B49D831CF
:1016B0000860704701460020754A506820F4404099
:1016C0000843506070470021714A20321170704AFF
:1016D00082F82010012802D004280AD104E0012158
:1016E0006B4A2032117005E00521694A20321170E1
:1016F00000E000BF00BF7047694908607047644957
:10170000096A0143624A11627047654944390860B9
:10171000704730B500210022002400235C4D6D6825
:1017200005F00C0121B1042905D0082923D105E0D9
:101730005C4D056022E05B4D05601FE0544D6D6817
:1017400005F47012524D6D6805F48034022505EBE6
:1017500092421CB9544D554305600BE04C4D6D68E9
:1017600005F400351DB1504D5543056002E04D4D67
:101770005543056002E04B4D056000BF00BF444D7E
:101780006D6805F0F0010909484D6B5C0568DD40A6
:1017900045603F4D6D6805F4E061090A434D6B5C9F
:1017A0004568DD4085603A4D6D6805F46051C90AB1
:1017B0003E4D6B5C4568DD40C560354D6D6805F498
:1017C0004041890B3A4D6B5CC568B5FBF3F505618B
:1017D00030BD29B12E4A526902432D4B5A6104E0B3
:1017E0002B4A526982432A4B5A61704729B1284AD1
:1017F00092690243264B9A6104E0254A926982432A
:10180000234B9A61704729B1214AD2690243204B88
:10181000DA6104E01E4AD26982431D4BDA617047E7
:1018200029B11B4AD2680243194BDA6004E0184A16
:10183000D2688243164BDA60704729B1144A1269A4
:101840000243134B1A6104E0114A12698243104BA0
:101850001A61704712494039086070470F49C864DF
:1018600070470B49C87170470948406A40F0807062
:1018700007494862704701460020054A92680A40BD
:101880000AB1012000E000207047014988727047CA
:10189000001002400000FFF8FFFFF6FE0000424289
:1018A0008004424200127A0000093D005E000020E0
:1018B0006E00002010B50446FB48844209D1012186
:1018C0008803FFF7ADFF00214FF48040FFF7A8FF2A
:1018D00032E0F648844209D101214804FFF7ADFF08
:1018E00000214FF40030FFF7A8FF25E0F0488442C4
:1018F00009D101218804FFF7A0FF00214FF48020C7
:10190000FFF79BFF18E0EB48844209D10121C8048E
:10191000FFF793FF00214FF40020FFF78EFF0BE04D
:10192000E548844208D101210805FFF786FF002120
:101930004FF48010FFF781FF10BD2DE9F04786B00E
:1019400005460E460024A24600BFA1460027B089E6
:1019500000B100BF2F462C8A4CF6FF700440F0887F
:1019600004432C82AC894EF6F3100440B0883189D0
:101970000843718908430443AC81AC8A4FF6FF40A9
:101980000440B0890443AC8201A8FFF7C2FEC648F8
:10199000874202D1DDF810A001E0DDF80CA0A88993
:1019A00000F4004040B10AEBCA0000EB0A103168B5
:1019B0004900B0FBF1F807E00AEBCA0000EB0A109F
:1019C00031688900B0FBF1F86420B8FBF0F0040145
:1019D0002009642101FB1089A88900F4004040B16E
:1019E000322000EBC900B0FBF1F000F00700044327
:1019F00008E0322000EB09106421B0FBF1F000F0A8
:101A00000F0004432C8106B0BDE8F0874FF4165157
:101A1000016000218180C18001810C214181002170
:101A20008181704710B502460020108A4FF2FF03F3
:101A300018400B884C8823438C882343CC8823434D
:101A40001843108210BD0021018041808180C18037
:101A5000704721B1828942F40052828104E0828978
:101A60004DF6FF731A4082817047F0B5034600249B
:101A700000260025002040F66A17B94200D100BFB9
:101A80001846C1F3421401F01F06012707FA06F5B4
:101A9000012C01D10C3004E0022C01D1103000E007
:101AA00014301AB107682F43076002E00768AF439C
:101AB0000760F0BD1AB1838A0B43838202E0838AF8
:101AC0008B4383827047028A4FF6F0731A4002827A
:101AD000028A0A430282704782894FF2FF731A40DA
:101AE000828182890A438281704721B1828942F0D2
:101AF0000202828104E082894FF6FD731A408281DE
:101B00007047028A4FF6DF731A400282028A0A4344
:101B10000282704721B1028A42F48042028204E0CC
:101B2000028A4BF6FF731A4002827047C1F3080223
:101B30008280704701468888C0F308007047818919
:101B400041F0010181817047028BD2B20283028B86
:101B500042EA012202837047028B02F47F42028331
:101B6000028B0A430283704721B1828A42F020022D
:101B7000828204E0828A4FF6DF731A4082827047C5
:101B800021B1828A42F01002828204E0828A4FF6FA
:101B9000EF731A408282704721B1828A42F00802B4
:101BA000828204E0828A4FF6F7731A40828270477D
:101BB00021B1828942F40042828103E08289C2F32A
:101BC0000E028281704721B1828A42F400628282D1
:101BD00004E0828A4FF2FF731A4082827047828A41
:101BE0004FF6FB731A408282828A0A4382827047D0
:101BF00021B1828A42F00202828204E0828A4FF698
:101C0000FD731A408282704702460020B1F5007FC2
:101C100000D100BF13880B400BB1012000E0002071
:101C2000704701F40072B2F5007F00D100BFCA43D3
:101C30000280704770B50246002400230025002072
:101C400040F66A16B14200D100BFC1F3421501F05F
:101C50001F03012606FA03F3012D02D196893340B2
:101C600006E0022D02D1168A334001E0968A334005
:101C70000C12012606FA04F41688344013B10CB194
:101C8000012000E0002070BD10B50022002340F6C6
:101C90006A14A14200D100BF0A1201249440A3B2E9
:101CA000DC43048010BD00000038014000440040C7
:101CB00000480040004C00400050004031490143C2
:101CC000314A1160704770B5002100230F22C4789B
:101CD00004B32D4C246804F4E064C4F5E064210AE4
:101CE000C1F10403CA40447804FA03F18478144033
:101CF00021430901254C0678A155047804F01F05FD
:101D00000124AC4005786D11AD0005F1E025C5F862
:101D1000004109E0047804F01F050124AC401C4D8B
:101D20000678761145F8264070BD1A4A0A400243EB
:101D3000154B1B1F1A60704739B1134A121D1268E8
:101D40000243114B1B1D1A6006E00F4A121D126858
:101D500082430D4B1B1D1A607047042808D14FF0B9
:101D6000E021096941F004014FF0E022116107E030
:101D70004FF0E021096921F004014FF0E0221161E8
:101D8000704700000000FA050CED00E000E400E000
:101D900080E100E080FFFF1F01460020FE4A10683E
:101DA00000F03800084310607047FB49096821F0D3
:101DB0000801F94A11601146096801431160704732
:101DC000F549096821F01001F34A116011460968CC
:101DD000014311607047F148EF494860F04848609E
:101DE0007047EE48EC494860ED4848607047EA4863
:101DF000006940F08000E84908617047E6480069E2
:101E000040F08000E449086170470420E249C96855
:101E100001F0010109B101200EE0DF49C96801F0BC
:101E2000040109B1022007E0DB49C96801F0100193
:101E300009B1032000E00420704700B502460423E6
:101E4000FFF7E3FF034603E0FFF7DFFF0346521E01
:101E5000012B01D1002AF7D102B90523184600BD94
:101E600030B5044604254FF43020FFF7E6FF054661
:101E7000042D17D1C848006940F00200C649086126
:101E800008464461006940F0400008614FF430208A
:101E9000FFF7D3FF0546C048006941F6FD710840D1
:101EA000BD490861284630BD10B504244FF43020E8
:101EB000FFF7C3FF0446042C16D1B748006940F071
:101EC0000400B54908610846006940F04000086117
:101ED0004FF43020FFF7B1FF0446AF48006941F6E8
:101EE000FB710840AC490861204610BD00B50246B0
:101EF0000423FFF78AFF034603E0FFF786FF03464C
:101F0000521E012B01D1002AF7D102B90523184630
:101F100000BD10B504244FF43020FFF7E7FF04465E
:101F2000042C16D19C48006940F004009A490861CD
:101F30000846006940F0400008614FF43020FFF788
:101F4000D5FF04469448006941F6FB710840924968
:101F50000861204610BD00208F49C96901F00201C7
:101F600009B1012000E00020704730B5A525042408
:101F7000FFF7F1FF00B100254FF43020FFF75DFFC0
:101F80000446042C3AD18548834988608448886097
:101F90000846006940F0200008610846006940F0EA
:101FA000400008614FF43020FFF747FF0446042C3F
:101FB0001BD17948006941F6DF7108407649086114
:101FC0000846006940F01000086176480580E0028C
:101FD000FFF733FF0446052C10D06F48006941F627
:101FE000EF7108406C49086108E0052C06D06A488A
:101FF000006941F6EF71084067490861204630BD2D
:1020000078B506460C46042500200090E802FFF74C
:1020100014FF0546042D24D15F48006940F00100FB
:102020005D4908613480E802FFF707FF0546042D8B
:1020300010D1B01C0090200C00990880E802FFF736
:10204000FCFE05465448006941F6FE7108405249BD
:10205000086106E05048006941F6FE7108404E49AB
:102060000861284678BD70B504460D460426F00286
:10207000FFF7E3FE0646042E11D14748006940F001
:102080000100454908612580F002FFF7D6FE0646AB
:102090004148006941F6FE7108403F4908613046F9
:1020A00070BD70B505460E460424E002FFF7C5FE7C
:1020B0000446042C17D1394837498860384888606D
:1020C0000846006940F0100008612E80E002FFF72A
:1020D000B4FE0446052C06D02F48006941F6EF7186
:1020E00008402D490861204670BD2DE9F0430446A3
:1020F0004FF6FF763746B046B1460425E443E6B2D4
:10210000C4F30727C4F307484FEA1469E802FFF74E
:1021100094FE0546042D49D120481F498860204877
:1021200088600846006940F010000861FF2E06D064
:102130001C4808300680E802FFF77FFE0546042DA4
:1021400008D1FF2F06D017480A300780E802FFF7B2
:1021500074FE0546042D0AD1B8F1FF0F07D01148CF
:102160000C30A0F80080E802FFF767FE0546042D5A
:102170000AD1B9F1FF0F07D00A480E30A0F800903D
:10218000E802FFF75AFE0546052D0FD00248006908
:1021900041F6EF71084007E0002002402301674547
:1021A000AB89EFCD00F8FF1F664908612846BDE8FE
:1021B000F08330B5054604244FF43020FFF73DFE90
:1021C0000446042C41D160485E4988605F488860BD
:1021D0000846006940F0200008610846006940F0A8
:1021E000400008614FF43020FFF727FE0446042C1E
:1021F00022D15448006941F6DF7108405149086115
:102200000846006940F0100008611DB100205049E7
:10221000088002E0A5204E4908804FF43020FFF7E7
:102220000CFE0446052C10D04648006941F6EF71BB
:1022300008404449086108E0052C06D0414800697F
:1022400041F6DF7108403F490861204630BDF0B5D6
:1022500005460E46174604243B483A4988603B48E9
:102260008860E002FFF7E9FD0446042C19D13548E7
:10227000006940F010003349086147F0F80030432E
:1022800028433349891C0880E002FFF7D6FD044645
:10229000052C06D02B48006941F6EF71084029490A
:1022A00008612046F0BD2748C0698008704725486E
:1022B000006A704700202349096801F0200109B134
:1022C000012000E00020704729B11E4A1269024334
:1022D0001C4B1A6104E01B4A12698243194B1A61B4
:1022E000704701460020012908D1164AD26902F040
:1022F00001020AB1012008E0002006E0114AD2687C
:102300000A400AB1012000E0002070470D49C86072
:10231000704704200B49C96801F0010109B101208F
:102320000EE00849C96801F0040109B1022007E084
:102330000449C96801F0100109B1032000E004203C
:10234000704700000020024023016745AB89EFCDB4
:1023500000F8FF1F064C074D06E0E06840F001035F
:1023600094E8070098471034AC42F6D3FDF7E4FE3A
:1023700098230008B823000802E008C8121F08C10B
:10238000002AFAD170477047002001E001C1121FF6
:10239000002AFBD170470000B8230008000000208D
:1023A00074000000782300082C240008740000202A
:1023B000B40D00008823000800A24A0400000000B9
:1023C00000000000010203040607080900000000E5
:1023D00000000000000000000000000000000000FD
:1023E00000000000000000000000000000000000ED
:1023F00000000000000000000000000000000000DD
:1024000000000000000000000000000000000000CC
:1024100000000000000000000000010203040102AF
:0C24200003040607080902040608000077
:0400000508000131BD
:00000001FF
